{
  "contractName": "Counter",
  "abi": [
    {
      "inputs": [
        {
          "internalType": "uint256",
          "name": "_count",
          "type": "uint256"
        }
      ],
      "payable": false,
      "stateMutability": "nonpayable",
      "type": "constructor"
    },
    {
      "constant": true,
      "inputs": [],
      "name": "count",
      "outputs": [
        {
          "internalType": "uint256",
          "name": "",
          "type": "uint256"
        }
      ],
      "payable": false,
      "stateMutability": "view",
      "type": "function"
    },
    {
      "constant": false,
      "inputs": [],
      "name": "increment",
      "outputs": [],
      "payable": false,
      "stateMutability": "nonpayable",
      "type": "function"
    },
    {
      "constant": false,
      "inputs": [],
      "name": "decrement",
      "outputs": [],
      "payable": false,
      "stateMutability": "nonpayable",
      "type": "function"
    }
  ],
  "bytecode": "0x608060405234801561001057600080fd5b506040516101293803806101298339818101604052602081101561003357600080fd5b8101908080519060200190929190505050806000819055505060cf8061005a6000396000f3fe6080604052348015600f57600080fd5b5060043610603c5760003560e01c806306661abd1460415780632baeceb714605d578063d09de08a146065575b600080fd5b6047606d565b6040518082815260200191505060405180910390f35b60636073565b005b606b6087565b005b60005481565b600080815480929190600190039190505550565b600080815480929190600101919050555056fea265627a7a72315820bb11b4bbbe22d21dee78d1aa528dac9e65fe0f6955c8960935c42c04527df40464736f6c63430005100032",
  "source": "pragma solidity ^0.5.11;\n\ncontract Counter {\n    uint public count;\n\n    constructor (uint _count) public {\n        count = _count;\n    }\n\n\n    function increment () external {\n        count++;\n    }\n\n    function decrement() external {\n        count--;\n    }\n\n\n}",
  "sourcePath": "/Users/static/Desktop/Blockchain/react/contracts/Counter.sol",
  "compiler": {
    "name": "solc",
    "version": "0.5.16+commit.9c3226ce.Emscripten.clang"
  },
  "schemaVersion": "3.3.4",
  "updatedAt": "2021-02-13T13:10:22.124Z",
  "networkType": "ethereum",
  "devdoc": {
    "methods": {}
  },
  "userdoc": {
    "methods": {}
  }
}